{
  "_format": "hh-sol-artifact-1",
  "contractName": "SmartReader",
  "sourceName": "contracts/SmartReader.sol",
  "abi": [
    {
      "inputs": [],
      "stateMutability": "nonpayable",
      "type": "constructor"
    },
    {
      "anonymous": false,
      "inputs": [
        {
          "indexed": false,
          "internalType": "address",
          "name": "mainContract",
          "type": "address"
        },
        {
          "indexed": false,
          "internalType": "string",
          "name": "subContractName",
          "type": "string"
        },
        {
          "indexed": false,
          "internalType": "string",
          "name": "annotation",
          "type": "string"
        }
      ],
      "name": "AnnotationAdded",
      "type": "event"
    },
    {
      "anonymous": false,
      "inputs": [
        {
          "indexed": false,
          "internalType": "address",
          "name": "mainContract",
          "type": "address"
        },
        {
          "indexed": false,
          "internalType": "string",
          "name": "subContractName",
          "type": "string"
        },
        {
          "indexed": false,
          "internalType": "string",
          "name": "explanation",
          "type": "string"
        }
      ],
      "name": "ContractAdded",
      "type": "event"
    },
    {
      "inputs": [
        {
          "internalType": "address",
          "name": "mainContract",
          "type": "address"
        },
        {
          "internalType": "string",
          "name": "subContractName",
          "type": "string"
        },
        {
          "internalType": "string",
          "name": "annotation",
          "type": "string"
        }
      ],
      "name": "addAnnotation",
      "outputs": [],
      "stateMutability": "nonpayable",
      "type": "function"
    },
    {
      "inputs": [
        {
          "internalType": "address",
          "name": "mainContract",
          "type": "address"
        },
        {
          "internalType": "string",
          "name": "subContractName",
          "type": "string"
        },
        {
          "internalType": "string",
          "name": "explanation",
          "type": "string"
        }
      ],
      "name": "addContract",
      "outputs": [],
      "stateMutability": "nonpayable",
      "type": "function"
    },
    {
      "inputs": [
        {
          "internalType": "address",
          "name": "",
          "type": "address"
        },
        {
          "internalType": "string",
          "name": "",
          "type": "string"
        }
      ],
      "name": "contractStorage",
      "outputs": [
        {
          "internalType": "string",
          "name": "",
          "type": "string"
        }
      ],
      "stateMutability": "view",
      "type": "function"
    },
    {
      "inputs": [],
      "name": "owner",
      "outputs": [
        {
          "internalType": "address",
          "name": "",
          "type": "address"
        }
      ],
      "stateMutability": "view",
      "type": "function"
    }
  ],
  "bytecode": "0x608060405234801561001057600080fd5b50600080546001600160a01b03191633179055610722806100326000396000f3fe608060405234801561001057600080fd5b506004361061004c5760003560e01c80637c695b91146100515780638da5cb5b14610066578063e3cb8b8a14610096578063f17fad30146100a9575b600080fd5b61006461005f36600461041b565b6100c9565b005b600054610079906001600160a01b031681565b6040516001600160a01b0390911681526020015b60405180910390f35b6100646100a436600461041b565b6101e2565b6100bc6100b736600461048f565b6102a6565b60405161008d919061052d565b6001600160a01b0383166000908152600160205260409081902090516100f0908490610547565b9081526020016040518091039020805461010990610563565b15905061015d5760405162461bcd60e51b815260206004820152601a60248201527f4578706c616e6174696f6e20616c72656164792065786973747300000000000060448201526064015b60405180910390fd5b6001600160a01b038316600090815260016020526040908190209051829190610187908590610547565b908152602001604051809103902090816101a191906105ec565b507f8baae8ff10f7d1262136f14863e04ec9ef964536a38a00e0080919432fbea33f8383836040516101d5939291906106ac565b60405180910390a1505050565b6001600160a01b038316600090815260016020526040908190209051610209908490610547565b9081526020016040518091039020805461022290610563565b90506000036102735760405162461bcd60e51b815260206004820152601960248201527f616e6e6f746174696f6e20616c726561647920657869737473000000000000006044820152606401610154565b7ff688f226cdde5dad0f0f14da02c876ac5625455593e01e253c43c98079d869168383836040516101d5939291906106ac565b60016020908152600092835260409092208151808301840180519281529084019290930191909120915280546102db90610563565b80601f016020809104026020016040519081016040528092919081815260200182805461030790610563565b80156103545780601f1061032957610100808354040283529160200191610354565b820191906000526020600020905b81548152906001019060200180831161033757829003601f168201915b505050505081565b80356001600160a01b038116811461037357600080fd5b919050565b634e487b7160e01b600052604160045260246000fd5b600082601f83011261039f57600080fd5b813567ffffffffffffffff808211156103ba576103ba610378565b604051601f8301601f19908116603f011681019082821181831017156103e2576103e2610378565b816040528381528660208588010111156103fb57600080fd5b836020870160208301376000602085830101528094505050505092915050565b60008060006060848603121561043057600080fd5b6104398461035c565b9250602084013567ffffffffffffffff8082111561045657600080fd5b6104628783880161038e565b9350604086013591508082111561047857600080fd5b506104858682870161038e565b9150509250925092565b600080604083850312156104a257600080fd5b6104ab8361035c565b9150602083013567ffffffffffffffff8111156104c757600080fd5b6104d38582860161038e565b9150509250929050565b60005b838110156104f85781810151838201526020016104e0565b50506000910152565b600081518084526105198160208601602086016104dd565b601f01601f19169290920160200192915050565b6020815260006105406020830184610501565b9392505050565b600082516105598184602087016104dd565b9190910192915050565b600181811c9082168061057757607f821691505b60208210810361059757634e487b7160e01b600052602260045260246000fd5b50919050565b601f8211156105e757600081815260208120601f850160051c810160208610156105c45750805b601f850160051c820191505b818110156105e3578281556001016105d0565b5050505b505050565b815167ffffffffffffffff81111561060657610606610378565b61061a816106148454610563565b8461059d565b602080601f83116001811461064f57600084156106375750858301515b600019600386901b1c1916600185901b1785556105e3565b600085815260208120601f198616915b8281101561067e5788860151825594840194600190910190840161065f565b508582101561069c5787850151600019600388901b60f8161c191681555b5050505050600190811b01905550565b6001600160a01b03841681526060602082018190526000906106d090830185610501565b82810360408401526106e28185610501565b969550505050505056fea26469706673582212201012441feb4623a764337755c91ef0faa2e9e7823c064d0d1c3723fd931dd26064736f6c63430008120033",
  "linkReferences": {},
  "deployedLinkReferences": {}
}