{"contracts/SmartReader.sol":{"SmartReader":{"abi":[{"inputs":[],"stateMutability":"nonpayable","type":"constructor"},{"anonymous":false,"inputs":[{"indexed":false,"internalType":"address","name":"parentContract","type":"address"},{"indexed":false,"internalType":"uint256","name":"functionId","type":"uint256"},{"indexed":false,"internalType":"string","name":"annotation","type":"string"}],"name":"AnnotationAdded","type":"event"},{"anonymous":false,"inputs":[{"indexed":false,"internalType":"address","name":"addedContract","type":"address"},{"indexed":false,"internalType":"string","name":"explanation","type":"string"}],"name":"ContractAdded","type":"event"},{"inputs":[{"internalType":"address","name":"parentContract","type":"address"},{"internalType":"uint256","name":"functionId","type":"uint256"},{"internalType":"string","name":"annotation","type":"string"}],"name":"addAnnotation","outputs":[],"stateMutability":"nonpayable","type":"function"},{"inputs":[{"internalType":"address","name":"newContract","type":"address"},{"internalType":"string","name":"explanation","type":"string"}],"name":"addContract","outputs":[],"stateMutability":"nonpayable","type":"function"},{"inputs":[{"internalType":"address","name":"","type":"address"}],"name":"contractStorage","outputs":[{"internalType":"string","name":"","type":"string"}],"stateMutability":"view","type":"function"},{"inputs":[],"name":"owner","outputs":[{"internalType":"address","name":"","type":"address"}],"stateMutability":"view","type":"function"}],"evm":{"bytecode":{"linkReferences":{},"object":"608060405234801561001057600080fd5b50600080546001600160a01b0319163317905561074d806100326000396000f3fe608060405234801561001057600080fd5b506004361061004c5760003560e01c80634300e8ef146100515780635c36156c1461006657806379b3d1a8146100795780638da5cb5b146100a2575b600080fd5b61006461005f3660046103dc565b6100cd565b005b61006461007436600461042a565b6101cf565b61008c610087366004610481565b610283565b60405161009991906104e9565b60405180910390f35b6000546100b5906001600160a01b031681565b6040516001600160a01b039091168152602001610099565b6001600160a01b0382166000908152600160205260409081902090516100f39190610536565b604051809103902081805190602001200361016f5760405162461bcd60e51b815260206004820152603160248201527f436f6e7472616374206578706c616e6174696f6e20697320616c72656164792060448201527073657420746f20746869732076616c756560781b60648201526084015b60405180910390fd5b6001600160a01b038216600090815260016020526040902061019182826105fb565b507fccdd6d86e4b322abaa06bff8c608dd15838f4159cc081c9c66a50fec320f38a782826040516101c39291906106bb565b60405180910390a15050565b6001600160a01b038316600090815260016020526040902080546101f2906104fc565b90506000036102435760405162461bcd60e51b815260206004820152601760248201527f436f6e747261637420646f6573206e6f742065786973740000000000000000006044820152606401610166565b7f160cb3bd274ea4b4b4417b38d4b132efb384519290223d865da61c467f04ed65838383604051610276939291906106e7565b60405180910390a1505050565b6001602052600090815260409020805461029c906104fc565b80601f01602080910402602001604051908101604052809291908181526020018280546102c8906104fc565b80156103155780601f106102ea57610100808354040283529160200191610315565b820191906000526020600020905b8154815290600101906020018083116102f857829003601f168201915b505050505081565b80356001600160a01b038116811461033457600080fd5b919050565b634e487b7160e01b600052604160045260246000fd5b600082601f83011261036057600080fd5b813567ffffffffffffffff8082111561037b5761037b610339565b604051601f8301601f19908116603f011681019082821181831017156103a3576103a3610339565b816040528381528660208588010111156103bc57600080fd5b836020870160208301376000602085830101528094505050505092915050565b600080604083850312156103ef57600080fd5b6103f88361031d565b9150602083013567ffffffffffffffff81111561041457600080fd5b6104208582860161034f565b9150509250929050565b60008060006060848603121561043f57600080fd5b6104488461031d565b925060208401359150604084013567ffffffffffffffff81111561046b57600080fd5b6104778682870161034f565b9150509250925092565b60006020828403121561049357600080fd5b61049c8261031d565b9392505050565b6000815180845260005b818110156104c9576020818501810151868301820152016104ad565b506000602082860101526020601f19601f83011685010191505092915050565b60208152600061049c60208301846104a3565b600181811c9082168061051057607f821691505b60208210810361053057634e487b7160e01b600052602260045260246000fd5b50919050565b6000808354610544816104fc565b6001828116801561055c5760018114610571576105a0565b60ff19841687528215158302870194506105a0565b8760005260208060002060005b858110156105975781548a82015290840190820161057e565b50505082870194505b50929695505050505050565b601f8211156105f657600081815260208120601f850160051c810160208610156105d35750805b601f850160051c820191505b818110156105f2578281556001016105df565b5050505b505050565b815167ffffffffffffffff81111561061557610615610339565b6106298161062384546104fc565b846105ac565b602080601f83116001811461065e57600084156106465750858301515b600019600386901b1c1916600185901b1785556105f2565b600085815260208120601f198616915b8281101561068d5788860151825594840194600190910190840161066e565b50858210156106ab5787850151600019600388901b60f8161c191681555b5050505050600190811b01905550565b6001600160a01b03831681526040602082018190526000906106df908301846104a3565b949350505050565b60018060a01b038416815282602082015260606040820152600061070e60608301846104a3565b9594505050505056fea26469706673582212202ed663a9d4db199940bf39ca9b54d12df556f5ce46978c8022798e8426e2816464736f6c63430008120033","opcodes":"PUSH1 0x80 PUSH1 0x40 MSTORE CALLVALUE DUP1 ISZERO PUSH2 0x10 JUMPI PUSH1 0x0 DUP1 REVERT JUMPDEST POP PUSH1 0x0 DUP1 SLOAD PUSH1 0x1 PUSH1 0x1 PUSH1 0xA0 SHL SUB NOT AND CALLER OR SWAP1 SSTORE PUSH2 0x74D DUP1 PUSH2 0x32 PUSH1 0x0 CODECOPY PUSH1 0x0 RETURN INVALID PUSH1 0x80 PUSH1 0x40 MSTORE CALLVALUE DUP1 ISZERO PUSH2 0x10 JUMPI PUSH1 0x0 DUP1 REVERT JUMPDEST POP PUSH1 0x4 CALLDATASIZE LT PUSH2 0x4C JUMPI PUSH1 0x0 CALLDATALOAD PUSH1 0xE0 SHR DUP1 PUSH4 0x4300E8EF EQ PUSH2 0x51 JUMPI DUP1 PUSH4 0x5C36156C EQ PUSH2 0x66 JUMPI DUP1 PUSH4 0x79B3D1A8 EQ PUSH2 0x79 JUMPI DUP1 PUSH4 0x8DA5CB5B EQ PUSH2 0xA2 JUMPI JUMPDEST PUSH1 0x0 DUP1 REVERT JUMPDEST PUSH2 0x64 PUSH2 0x5F CALLDATASIZE PUSH1 0x4 PUSH2 0x3DC JUMP JUMPDEST PUSH2 0xCD JUMP JUMPDEST STOP JUMPDEST PUSH2 0x64 PUSH2 0x74 CALLDATASIZE PUSH1 0x4 PUSH2 0x42A JUMP JUMPDEST PUSH2 0x1CF JUMP JUMPDEST PUSH2 0x8C PUSH2 0x87 CALLDATASIZE PUSH1 0x4 PUSH2 0x481 JUMP JUMPDEST PUSH2 0x283 JUMP JUMPDEST PUSH1 0x40 MLOAD PUSH2 0x99 SWAP2 SWAP1 PUSH2 0x4E9 JUMP JUMPDEST PUSH1 0x40 MLOAD DUP1 SWAP2 SUB SWAP1 RETURN JUMPDEST PUSH1 0x0 SLOAD PUSH2 0xB5 SWAP1 PUSH1 0x1 PUSH1 0x1 PUSH1 0xA0 SHL SUB AND DUP2 JUMP JUMPDEST PUSH1 0x40 MLOAD PUSH1 0x1 PUSH1 0x1 PUSH1 0xA0 SHL SUB SWAP1 SWAP2 AND DUP2 MSTORE PUSH1 0x20 ADD PUSH2 0x99 JUMP JUMPDEST PUSH1 0x1 PUSH1 0x1 PUSH1 0xA0 SHL SUB DUP3 AND PUSH1 0x0 SWAP1 DUP2 MSTORE PUSH1 0x1 PUSH1 0x20 MSTORE PUSH1 0x40 SWAP1 DUP2 SWAP1 KECCAK256 SWAP1 MLOAD PUSH2 0xF3 SWAP2 SWAP1 PUSH2 0x536 JUMP JUMPDEST PUSH1 0x40 MLOAD DUP1 SWAP2 SUB SWAP1 KECCAK256 DUP2 DUP1 MLOAD SWAP1 PUSH1 0x20 ADD KECCAK256 SUB PUSH2 0x16F JUMPI PUSH1 0x40 MLOAD PUSH3 0x461BCD PUSH1 0xE5 SHL DUP2 MSTORE PUSH1 0x20 PUSH1 0x4 DUP3 ADD MSTORE PUSH1 0x31 PUSH1 0x24 DUP3 ADD MSTORE PUSH32 0x436F6E7472616374206578706C616E6174696F6E20697320616C726561647920 PUSH1 0x44 DUP3 ADD MSTORE PUSH17 0x73657420746F20746869732076616C7565 PUSH1 0x78 SHL PUSH1 0x64 DUP3 ADD MSTORE PUSH1 0x84 ADD JUMPDEST PUSH1 0x40 MLOAD DUP1 SWAP2 SUB SWAP1 REVERT JUMPDEST PUSH1 0x1 PUSH1 0x1 PUSH1 0xA0 SHL SUB DUP3 AND PUSH1 0x0 SWAP1 DUP2 MSTORE PUSH1 0x1 PUSH1 0x20 MSTORE PUSH1 0x40 SWAP1 KECCAK256 PUSH2 0x191 DUP3 DUP3 PUSH2 0x5FB JUMP JUMPDEST POP PUSH32 0xCCDD6D86E4B322ABAA06BFF8C608DD15838F4159CC081C9C66A50FEC320F38A7 DUP3 DUP3 PUSH1 0x40 MLOAD PUSH2 0x1C3 SWAP3 SWAP2 SWAP1 PUSH2 0x6BB JUMP JUMPDEST PUSH1 0x40 MLOAD DUP1 SWAP2 SUB SWAP1 LOG1 POP POP JUMP JUMPDEST PUSH1 0x1 PUSH1 0x1 PUSH1 0xA0 SHL SUB DUP4 AND PUSH1 0x0 SWAP1 DUP2 MSTORE PUSH1 0x1 PUSH1 0x20 MSTORE PUSH1 0x40 SWAP1 KECCAK256 DUP1 SLOAD PUSH2 0x1F2 SWAP1 PUSH2 0x4FC JUMP JUMPDEST SWAP1 POP PUSH1 0x0 SUB PUSH2 0x243 JUMPI PUSH1 0x40 MLOAD PUSH3 0x461BCD PUSH1 0xE5 SHL DUP2 MSTORE PUSH1 0x20 PUSH1 0x4 DUP3 ADD MSTORE PUSH1 0x17 PUSH1 0x24 DUP3 ADD MSTORE PUSH32 0x436F6E747261637420646F6573206E6F74206578697374000000000000000000 PUSH1 0x44 DUP3 ADD MSTORE PUSH1 0x64 ADD PUSH2 0x166 JUMP JUMPDEST PUSH32 0x160CB3BD274EA4B4B4417B38D4B132EFB384519290223D865DA61C467F04ED65 DUP4 DUP4 DUP4 PUSH1 0x40 MLOAD PUSH2 0x276 SWAP4 SWAP3 SWAP2 SWAP1 PUSH2 0x6E7 JUMP JUMPDEST PUSH1 0x40 MLOAD DUP1 SWAP2 SUB SWAP1 LOG1 POP POP POP JUMP JUMPDEST PUSH1 0x1 PUSH1 0x20 MSTORE PUSH1 0x0 SWAP1 DUP2 MSTORE PUSH1 0x40 SWAP1 KECCAK256 DUP1 SLOAD PUSH2 0x29C SWAP1 PUSH2 0x4FC JUMP JUMPDEST DUP1 PUSH1 0x1F ADD PUSH1 0x20 DUP1 SWAP2 DIV MUL PUSH1 0x20 ADD PUSH1 0x40 MLOAD SWAP1 DUP2 ADD PUSH1 0x40 MSTORE DUP1 SWAP3 SWAP2 SWAP1 DUP2 DUP2 MSTORE PUSH1 0x20 ADD DUP3 DUP1 SLOAD PUSH2 0x2C8 SWAP1 PUSH2 0x4FC JUMP JUMPDEST DUP1 ISZERO PUSH2 0x315 JUMPI DUP1 PUSH1 0x1F LT PUSH2 0x2EA JUMPI PUSH2 0x100 DUP1 DUP4 SLOAD DIV MUL DUP4 MSTORE SWAP2 PUSH1 0x20 ADD SWAP2 PUSH2 0x315 JUMP JUMPDEST DUP3 ADD SWAP2 SWAP1 PUSH1 0x0 MSTORE PUSH1 0x20 PUSH1 0x0 KECCAK256 SWAP1 JUMPDEST DUP2 SLOAD DUP2 MSTORE SWAP1 PUSH1 0x1 ADD SWAP1 PUSH1 0x20 ADD DUP1 DUP4 GT PUSH2 0x2F8 JUMPI DUP3 SWAP1 SUB PUSH1 0x1F AND DUP3 ADD SWAP2 JUMPDEST POP POP POP POP POP DUP2 JUMP JUMPDEST DUP1 CALLDATALOAD PUSH1 0x1 PUSH1 0x1 PUSH1 0xA0 SHL SUB DUP2 AND DUP2 EQ PUSH2 0x334 JUMPI PUSH1 0x0 DUP1 REVERT JUMPDEST SWAP2 SWAP1 POP JUMP JUMPDEST PUSH4 0x4E487B71 PUSH1 0xE0 SHL PUSH1 0x0 MSTORE PUSH1 0x41 PUSH1 0x4 MSTORE PUSH1 0x24 PUSH1 0x0 REVERT JUMPDEST PUSH1 0x0 DUP3 PUSH1 0x1F DUP4 ADD SLT PUSH2 0x360 JUMPI PUSH1 0x0 DUP1 REVERT JUMPDEST DUP2 CALLDATALOAD PUSH8 0xFFFFFFFFFFFFFFFF DUP1 DUP3 GT ISZERO PUSH2 0x37B JUMPI PUSH2 0x37B PUSH2 0x339 JUMP JUMPDEST PUSH1 0x40 MLOAD PUSH1 0x1F DUP4 ADD PUSH1 0x1F NOT SWAP1 DUP2 AND PUSH1 0x3F ADD AND DUP2 ADD SWAP1 DUP3 DUP3 GT DUP2 DUP4 LT OR ISZERO PUSH2 0x3A3 JUMPI PUSH2 0x3A3 PUSH2 0x339 JUMP JUMPDEST DUP2 PUSH1 0x40 MSTORE DUP4 DUP2 MSTORE DUP7 PUSH1 0x20 DUP6 DUP9 ADD ADD GT ISZERO PUSH2 0x3BC JUMPI PUSH1 0x0 DUP1 REVERT JUMPDEST DUP4 PUSH1 0x20 DUP8 ADD PUSH1 0x20 DUP4 ADD CALLDATACOPY PUSH1 0x0 PUSH1 0x20 DUP6 DUP4 ADD ADD MSTORE DUP1 SWAP5 POP POP POP POP POP SWAP3 SWAP2 POP POP JUMP JUMPDEST PUSH1 0x0 DUP1 PUSH1 0x40 DUP4 DUP6 SUB SLT ISZERO PUSH2 0x3EF JUMPI PUSH1 0x0 DUP1 REVERT JUMPDEST PUSH2 0x3F8 DUP4 PUSH2 0x31D JUMP JUMPDEST SWAP2 POP PUSH1 0x20 DUP4 ADD CALLDATALOAD PUSH8 0xFFFFFFFFFFFFFFFF DUP2 GT ISZERO PUSH2 0x414 JUMPI PUSH1 0x0 DUP1 REVERT JUMPDEST PUSH2 0x420 DUP6 DUP3 DUP7 ADD PUSH2 0x34F JUMP JUMPDEST SWAP2 POP POP SWAP3 POP SWAP3 SWAP1 POP JUMP JUMPDEST PUSH1 0x0 DUP1 PUSH1 0x0 PUSH1 0x60 DUP5 DUP7 SUB SLT ISZERO PUSH2 0x43F JUMPI PUSH1 0x0 DUP1 REVERT JUMPDEST PUSH2 0x448 DUP5 PUSH2 0x31D JUMP JUMPDEST SWAP3 POP PUSH1 0x20 DUP5 ADD CALLDATALOAD SWAP2 POP PUSH1 0x40 DUP5 ADD CALLDATALOAD PUSH8 0xFFFFFFFFFFFFFFFF DUP2 GT ISZERO PUSH2 0x46B JUMPI PUSH1 0x0 DUP1 REVERT JUMPDEST PUSH2 0x477 DUP7 DUP3 DUP8 ADD PUSH2 0x34F JUMP JUMPDEST SWAP2 POP POP SWAP3 POP SWAP3 POP SWAP3 JUMP JUMPDEST PUSH1 0x0 PUSH1 0x20 DUP3 DUP5 SUB SLT ISZERO PUSH2 0x493 JUMPI PUSH1 0x0 DUP1 REVERT JUMPDEST PUSH2 0x49C DUP3 PUSH2 0x31D JUMP JUMPDEST SWAP4 SWAP3 POP POP POP JUMP JUMPDEST PUSH1 0x0 DUP2 MLOAD DUP1 DUP5 MSTORE PUSH1 0x0 JUMPDEST DUP2 DUP2 LT ISZERO PUSH2 0x4C9 JUMPI PUSH1 0x20 DUP2 DUP6 ADD DUP2 ADD MLOAD DUP7 DUP4 ADD DUP3 ADD MSTORE ADD PUSH2 0x4AD JUMP JUMPDEST POP PUSH1 0x0 PUSH1 0x20 DUP3 DUP7 ADD ADD MSTORE PUSH1 0x20 PUSH1 0x1F NOT PUSH1 0x1F DUP4 ADD AND DUP6 ADD ADD SWAP2 POP POP SWAP3 SWAP2 POP POP JUMP JUMPDEST PUSH1 0x20 DUP2 MSTORE PUSH1 0x0 PUSH2 0x49C PUSH1 0x20 DUP4 ADD DUP5 PUSH2 0x4A3 JUMP JUMPDEST PUSH1 0x1 DUP2 DUP2 SHR SWAP1 DUP3 AND DUP1 PUSH2 0x510 JUMPI PUSH1 0x7F DUP3 AND SWAP2 POP JUMPDEST PUSH1 0x20 DUP3 LT DUP2 SUB PUSH2 0x530 JUMPI PUSH4 0x4E487B71 PUSH1 0xE0 SHL PUSH1 0x0 MSTORE PUSH1 0x22 PUSH1 0x4 MSTORE PUSH1 0x24 PUSH1 0x0 REVERT JUMPDEST POP SWAP2 SWAP1 POP JUMP JUMPDEST PUSH1 0x0 DUP1 DUP4 SLOAD PUSH2 0x544 DUP2 PUSH2 0x4FC JUMP JUMPDEST PUSH1 0x1 DUP3 DUP2 AND DUP1 ISZERO PUSH2 0x55C JUMPI PUSH1 0x1 DUP2 EQ PUSH2 0x571 JUMPI PUSH2 0x5A0 JUMP JUMPDEST PUSH1 0xFF NOT DUP5 AND DUP8 MSTORE DUP3 ISZERO ISZERO DUP4 MUL DUP8 ADD SWAP5 POP PUSH2 0x5A0 JUMP JUMPDEST DUP8 PUSH1 0x0 MSTORE PUSH1 0x20 DUP1 PUSH1 0x0 KECCAK256 PUSH1 0x0 JUMPDEST DUP6 DUP2 LT ISZERO PUSH2 0x597 JUMPI DUP2 SLOAD DUP11 DUP3 ADD MSTORE SWAP1 DUP5 ADD SWAP1 DUP3 ADD PUSH2 0x57E JUMP JUMPDEST POP POP POP DUP3 DUP8 ADD SWAP5 POP JUMPDEST POP SWAP3 SWAP7 SWAP6 POP POP POP POP POP POP JUMP JUMPDEST PUSH1 0x1F DUP3 GT ISZERO PUSH2 0x5F6 JUMPI PUSH1 0x0 DUP2 DUP2 MSTORE PUSH1 0x20 DUP2 KECCAK256 PUSH1 0x1F DUP6 ADD PUSH1 0x5 SHR DUP2 ADD PUSH1 0x20 DUP7 LT ISZERO PUSH2 0x5D3 JUMPI POP DUP1 JUMPDEST PUSH1 0x1F DUP6 ADD PUSH1 0x5 SHR DUP3 ADD SWAP2 POP JUMPDEST DUP2 DUP2 LT ISZERO PUSH2 0x5F2 JUMPI DUP3 DUP2 SSTORE PUSH1 0x1 ADD PUSH2 0x5DF JUMP JUMPDEST POP POP POP JUMPDEST POP POP POP JUMP JUMPDEST DUP2 MLOAD PUSH8 0xFFFFFFFFFFFFFFFF DUP2 GT ISZERO PUSH2 0x615 JUMPI PUSH2 0x615 PUSH2 0x339 JUMP JUMPDEST PUSH2 0x629 DUP2 PUSH2 0x623 DUP5 SLOAD PUSH2 0x4FC JUMP JUMPDEST DUP5 PUSH2 0x5AC JUMP JUMPDEST PUSH1 0x20 DUP1 PUSH1 0x1F DUP4 GT PUSH1 0x1 DUP2 EQ PUSH2 0x65E JUMPI PUSH1 0x0 DUP5 ISZERO PUSH2 0x646 JUMPI POP DUP6 DUP4 ADD MLOAD JUMPDEST PUSH1 0x0 NOT PUSH1 0x3 DUP7 SWAP1 SHL SHR NOT AND PUSH1 0x1 DUP6 SWAP1 SHL OR DUP6 SSTORE PUSH2 0x5F2 JUMP JUMPDEST PUSH1 0x0 DUP6 DUP2 MSTORE PUSH1 0x20 DUP2 KECCAK256 PUSH1 0x1F NOT DUP7 AND SWAP2 JUMPDEST DUP3 DUP2 LT ISZERO PUSH2 0x68D JUMPI DUP9 DUP7 ADD MLOAD DUP3 SSTORE SWAP5 DUP5 ADD SWAP5 PUSH1 0x1 SWAP1 SWAP2 ADD SWAP1 DUP5 ADD PUSH2 0x66E JUMP JUMPDEST POP DUP6 DUP3 LT ISZERO PUSH2 0x6AB JUMPI DUP8 DUP6 ADD MLOAD PUSH1 0x0 NOT PUSH1 0x3 DUP9 SWAP1 SHL PUSH1 0xF8 AND SHR NOT AND DUP2 SSTORE JUMPDEST POP POP POP POP POP PUSH1 0x1 SWAP1 DUP2 SHL ADD SWAP1 SSTORE POP JUMP JUMPDEST PUSH1 0x1 PUSH1 0x1 PUSH1 0xA0 SHL SUB DUP4 AND DUP2 MSTORE PUSH1 0x40 PUSH1 0x20 DUP3 ADD DUP2 SWAP1 MSTORE PUSH1 0x0 SWAP1 PUSH2 0x6DF SWAP1 DUP4 ADD DUP5 PUSH2 0x4A3 JUMP JUMPDEST SWAP5 SWAP4 POP POP POP POP JUMP JUMPDEST PUSH1 0x1 DUP1 PUSH1 0xA0 SHL SUB DUP5 AND DUP2 MSTORE DUP3 PUSH1 0x20 DUP3 ADD MSTORE PUSH1 0x60 PUSH1 0x40 DUP3 ADD MSTORE PUSH1 0x0 PUSH2 0x70E PUSH1 0x60 DUP4 ADD DUP5 PUSH2 0x4A3 JUMP JUMPDEST SWAP6 SWAP5 POP POP POP POP POP JUMP INVALID LOG2 PUSH5 0x6970667358 0x22 SLT KECCAK256 0x2E 0xD6 PUSH4 0xA9D4DB19 SWAP10 BLOCKHASH 0xBF CODECOPY 0xCA SWAP12 SLOAD 0xD1 0x2D CREATE2 JUMP CREATE2 0xCE CHAINID SWAP8 DUP13 DUP1 0x22 PUSH26 0x8E8426E2816464736F6C63430008120033000000000000000000 "},"methodIdentifiers":{"addAnnotation(address,uint256,string)":"5c36156c","addContract(address,string)":"4300e8ef","contractStorage(address)":"79b3d1a8","owner()":"8da5cb5b"}}}}}