{
  "_format": "hh-sol-artifact-1",
  "contractName": "SmartReader",
  "sourceName": "contracts/SmartReader.sol",
  "abi": [
    {
      "inputs": [],
      "stateMutability": "nonpayable",
      "type": "constructor"
    },
    {
      "anonymous": false,
      "inputs": [
        {
          "indexed": false,
          "internalType": "address",
          "name": "parentContract",
          "type": "address"
        },
        {
          "indexed": false,
          "internalType": "uint256",
          "name": "functionId",
          "type": "uint256"
        },
        {
          "indexed": false,
          "internalType": "string",
          "name": "annotation",
          "type": "string"
        }
      ],
      "name": "AnnotationAdded",
      "type": "event"
    },
    {
      "anonymous": false,
      "inputs": [
        {
          "indexed": false,
          "internalType": "address",
          "name": "parentContract",
          "type": "address"
        },
        {
          "indexed": false,
          "internalType": "string",
          "name": "explanation",
          "type": "string"
        }
      ],
      "name": "ContractAdded",
      "type": "event"
    },
    {
      "inputs": [
        {
          "internalType": "address",
          "name": "parentContract",
          "type": "address"
        },
        {
          "internalType": "uint256",
          "name": "functionId",
          "type": "uint256"
        },
        {
          "internalType": "string",
          "name": "annotation",
          "type": "string"
        }
      ],
      "name": "addAnnotation",
      "outputs": [],
      "stateMutability": "nonpayable",
      "type": "function"
    },
    {
      "inputs": [
        {
          "internalType": "address",
          "name": "newContract",
          "type": "address"
        },
        {
          "internalType": "string",
          "name": "explanation",
          "type": "string"
        }
      ],
      "name": "addContract",
      "outputs": [],
      "stateMutability": "nonpayable",
      "type": "function"
    },
    {
      "inputs": [
        {
          "internalType": "address",
          "name": "",
          "type": "address"
        }
      ],
      "name": "contractStorage",
      "outputs": [
        {
          "internalType": "string",
          "name": "",
          "type": "string"
        }
      ],
      "stateMutability": "view",
      "type": "function"
    },
    {
      "inputs": [],
      "name": "owner",
      "outputs": [
        {
          "internalType": "address",
          "name": "",
          "type": "address"
        }
      ],
      "stateMutability": "view",
      "type": "function"
    }
  ],
  "bytecode": "0x608060405234801561001057600080fd5b50600080546001600160a01b031916331790556106ac806100326000396000f3fe608060405234801561001057600080fd5b506004361061004c5760003560e01c80634300e8ef146100515780635c36156c1461006657806379b3d1a8146100795780638da5cb5b146100a2575b600080fd5b61006461005f3660046103b1565b6100cd565b005b6100646100743660046103ff565b6101a4565b61008c610087366004610456565b610258565b60405161009991906104be565b60405180910390f35b6000546100b5906001600160a01b031681565b6040516001600160a01b039091168152602001610099565b6001600160a01b038216600090815260016020526040902080546100f0906104d1565b1590506101445760405162461bcd60e51b815260206004820152601760248201527f436f6e747261637420616c72656164792065786973747300000000000000000060448201526064015b60405180910390fd5b6001600160a01b0382166000908152600160205260409020610166828261055a565b507fccdd6d86e4b322abaa06bff8c608dd15838f4159cc081c9c66a50fec320f38a7828260405161019892919061061a565b60405180910390a15050565b6001600160a01b038316600090815260016020526040902080546101c7906104d1565b90506000036102185760405162461bcd60e51b815260206004820152601760248201527f436f6e747261637420646f6573206e6f74206578697374000000000000000000604482015260640161013b565b7f160cb3bd274ea4b4b4417b38d4b132efb384519290223d865da61c467f04ed6583838360405161024b93929190610646565b60405180910390a1505050565b60016020526000908152604090208054610271906104d1565b80601f016020809104026020016040519081016040528092919081815260200182805461029d906104d1565b80156102ea5780601f106102bf576101008083540402835291602001916102ea565b820191906000526020600020905b8154815290600101906020018083116102cd57829003601f168201915b505050505081565b80356001600160a01b038116811461030957600080fd5b919050565b634e487b7160e01b600052604160045260246000fd5b600082601f83011261033557600080fd5b813567ffffffffffffffff808211156103505761035061030e565b604051601f8301601f19908116603f011681019082821181831017156103785761037861030e565b8160405283815286602085880101111561039157600080fd5b836020870160208301376000602085830101528094505050505092915050565b600080604083850312156103c457600080fd5b6103cd836102f2565b9150602083013567ffffffffffffffff8111156103e957600080fd5b6103f585828601610324565b9150509250929050565b60008060006060848603121561041457600080fd5b61041d846102f2565b925060208401359150604084013567ffffffffffffffff81111561044057600080fd5b61044c86828701610324565b9150509250925092565b60006020828403121561046857600080fd5b610471826102f2565b9392505050565b6000815180845260005b8181101561049e57602081850181015186830182015201610482565b506000602082860101526020601f19601f83011685010191505092915050565b6020815260006104716020830184610478565b600181811c908216806104e557607f821691505b60208210810361050557634e487b7160e01b600052602260045260246000fd5b50919050565b601f82111561055557600081815260208120601f850160051c810160208610156105325750805b601f850160051c820191505b818110156105515782815560010161053e565b5050505b505050565b815167ffffffffffffffff8111156105745761057461030e565b6105888161058284546104d1565b8461050b565b602080601f8311600181146105bd57600084156105a55750858301515b600019600386901b1c1916600185901b178555610551565b600085815260208120601f198616915b828110156105ec578886015182559484019460019091019084016105cd565b508582101561060a5787850151600019600388901b60f8161c191681555b5050505050600190811b01905550565b6001600160a01b038316815260406020820181905260009061063e90830184610478565b949350505050565b60018060a01b038416815282602082015260606040820152600061066d6060830184610478565b9594505050505056fea264697066735822122089dab53e06309a1f6ee8800663342334b459d66ee8b049b12b1624674ba6c77964736f6c63430008120033",
  "linkReferences": {},
  "deployedLinkReferences": {}
}