{
  "_format": "hh-sol-artifact-1",
  "contractName": "SmartReader",
  "sourceName": "contracts/SmartReader.sol",
  "abi": [
    {
      "inputs": [],
      "stateMutability": "nonpayable",
      "type": "constructor"
    },
    {
      "anonymous": false,
      "inputs": [
        {
          "indexed": false,
          "internalType": "address",
          "name": "parentContract",
          "type": "address"
        },
        {
          "indexed": false,
          "internalType": "uint256",
          "name": "functionId",
          "type": "uint256"
        },
        {
          "indexed": false,
          "internalType": "string",
          "name": "annotation",
          "type": "string"
        }
      ],
      "name": "AnnotationAdded",
      "type": "event"
    },
    {
      "anonymous": false,
      "inputs": [
        {
          "indexed": false,
          "internalType": "address",
          "name": "addedContract",
          "type": "address"
        },
        {
          "indexed": false,
          "internalType": "string",
          "name": "explanation",
          "type": "string"
        }
      ],
      "name": "ContractAdded",
      "type": "event"
    },
    {
      "inputs": [
        {
          "internalType": "address",
          "name": "parentContract",
          "type": "address"
        },
        {
          "internalType": "uint256",
          "name": "functionId",
          "type": "uint256"
        },
        {
          "internalType": "string",
          "name": "annotation",
          "type": "string"
        }
      ],
      "name": "addAnnotation",
      "outputs": [],
      "stateMutability": "nonpayable",
      "type": "function"
    },
    {
      "inputs": [
        {
          "internalType": "address",
          "name": "newContract",
          "type": "address"
        },
        {
          "internalType": "string",
          "name": "explanation",
          "type": "string"
        }
      ],
      "name": "addContract",
      "outputs": [],
      "stateMutability": "nonpayable",
      "type": "function"
    },
    {
      "inputs": [
        {
          "internalType": "address",
          "name": "",
          "type": "address"
        }
      ],
      "name": "contractStorage",
      "outputs": [
        {
          "internalType": "string",
          "name": "",
          "type": "string"
        }
      ],
      "stateMutability": "view",
      "type": "function"
    },
    {
      "inputs": [],
      "name": "owner",
      "outputs": [
        {
          "internalType": "address",
          "name": "",
          "type": "address"
        }
      ],
      "stateMutability": "view",
      "type": "function"
    }
  ],
  "bytecode": "0x608060405234801561001057600080fd5b50600080546001600160a01b0319163317905561074d806100326000396000f3fe608060405234801561001057600080fd5b506004361061004c5760003560e01c80634300e8ef146100515780635c36156c1461006657806379b3d1a8146100795780638da5cb5b146100a2575b600080fd5b61006461005f3660046103dc565b6100cd565b005b61006461007436600461042a565b6101cf565b61008c610087366004610481565b610283565b60405161009991906104e9565b60405180910390f35b6000546100b5906001600160a01b031681565b6040516001600160a01b039091168152602001610099565b6001600160a01b0382166000908152600160205260409081902090516100f39190610536565b604051809103902081805190602001200361016f5760405162461bcd60e51b815260206004820152603160248201527f436f6e7472616374206578706c616e6174696f6e20697320616c72656164792060448201527073657420746f20746869732076616c756560781b60648201526084015b60405180910390fd5b6001600160a01b038216600090815260016020526040902061019182826105fb565b507fccdd6d86e4b322abaa06bff8c608dd15838f4159cc081c9c66a50fec320f38a782826040516101c39291906106bb565b60405180910390a15050565b6001600160a01b038316600090815260016020526040902080546101f2906104fc565b90506000036102435760405162461bcd60e51b815260206004820152601760248201527f436f6e747261637420646f6573206e6f742065786973740000000000000000006044820152606401610166565b7f160cb3bd274ea4b4b4417b38d4b132efb384519290223d865da61c467f04ed65838383604051610276939291906106e7565b60405180910390a1505050565b6001602052600090815260409020805461029c906104fc565b80601f01602080910402602001604051908101604052809291908181526020018280546102c8906104fc565b80156103155780601f106102ea57610100808354040283529160200191610315565b820191906000526020600020905b8154815290600101906020018083116102f857829003601f168201915b505050505081565b80356001600160a01b038116811461033457600080fd5b919050565b634e487b7160e01b600052604160045260246000fd5b600082601f83011261036057600080fd5b813567ffffffffffffffff8082111561037b5761037b610339565b604051601f8301601f19908116603f011681019082821181831017156103a3576103a3610339565b816040528381528660208588010111156103bc57600080fd5b836020870160208301376000602085830101528094505050505092915050565b600080604083850312156103ef57600080fd5b6103f88361031d565b9150602083013567ffffffffffffffff81111561041457600080fd5b6104208582860161034f565b9150509250929050565b60008060006060848603121561043f57600080fd5b6104488461031d565b925060208401359150604084013567ffffffffffffffff81111561046b57600080fd5b6104778682870161034f565b9150509250925092565b60006020828403121561049357600080fd5b61049c8261031d565b9392505050565b6000815180845260005b818110156104c9576020818501810151868301820152016104ad565b506000602082860101526020601f19601f83011685010191505092915050565b60208152600061049c60208301846104a3565b600181811c9082168061051057607f821691505b60208210810361053057634e487b7160e01b600052602260045260246000fd5b50919050565b6000808354610544816104fc565b6001828116801561055c5760018114610571576105a0565b60ff19841687528215158302870194506105a0565b8760005260208060002060005b858110156105975781548a82015290840190820161057e565b50505082870194505b50929695505050505050565b601f8211156105f657600081815260208120601f850160051c810160208610156105d35750805b601f850160051c820191505b818110156105f2578281556001016105df565b5050505b505050565b815167ffffffffffffffff81111561061557610615610339565b6106298161062384546104fc565b846105ac565b602080601f83116001811461065e57600084156106465750858301515b600019600386901b1c1916600185901b1785556105f2565b600085815260208120601f198616915b8281101561068d5788860151825594840194600190910190840161066e565b50858210156106ab5787850151600019600388901b60f8161c191681555b5050505050600190811b01905550565b6001600160a01b03831681526040602082018190526000906106df908301846104a3565b949350505050565b60018060a01b038416815282602082015260606040820152600061070e60608301846104a3565b9594505050505056fea26469706673582212202ed663a9d4db199940bf39ca9b54d12df556f5ce46978c8022798e8426e2816464736f6c63430008120033",
  "linkReferences": {},
  "deployedLinkReferences": {}
}